:1000000045C0000058C0000056C0000054C00000A9
:1000100052C0000051C000004EC000004CC00000A3
:100020004AC0000048C0000046C0000044C00000B4
:1000300042C0000040C000003EC000003CC00000C4
:100040003AC0000038C0000036C0000034C00000D4
:1000500032C0000030C000002EC000002CC00000E4
:100060002AC0000028C0000026C0000024C00000F4
:1000700022C0000020C000001EC000001CC0000004
:100080001AC0000018C0000016C0000011241FBED6
:10009000CFEFD0E1DEBFCDBF11E0A0E0B1E0EAE2FA
:1000A000F1E000E00BBF02C007900D92A230B10753
:1000B000D9F71FD038C0A4CF1F920F920FB60F925E
:1000C00011248F939F939091000181E08927809361
:1000D00000019F918F910F900FBE0F901F90189568
:1000E00012B88FEF8ABB80E189BF83E08ABF789422
:1000F0000895F6DF21E030E002C021E030E02BBBC4
:10010000809100018823D9F34FEA84E492E04150C2
:1001100080409040E1F700C000002038310568F7CA
:0A012000220F331FECCFF894FFCF3D
:02012A000100D2
:00000001FF
