S00E00004B65797061642E73726563B8
S113000045C0000058C0000056C0000054C00000A5
S113001052C0000050C000004EC000004CC00000A0
S11300204AC0000048C0000046C0000044C00000B0
S113003042C0000040C000003EC000003CC00000C0
S11300403AC0000038C0000036C0000034C00000D0
S113005032C0000030C000002EC000002CC00000E0
S11300602AC0000028C0000026C0000024C00000F0
S113007022C0000020C000001EC000001CC0000000
S11300801AC0000018C0000016C0000011241FBED2
S1130090CFEFD0E1DEBFCDBF11E0A0E0B1E0E4E6F8
S11300A0F1E000E00BBF02C007900D92A231B1074E
S11300B0D9F74ED055C0A4CF88EF8ABB8FEF87BB4A
S11300C0089588E08BBBC8991FC0C99920C0CA99FC
S11300D021C080E18BBBC89920C0C99921C0CA99AD
S11300E022C080E28BBBC89921C0C99922C0CA9999
S11300F023C080E48BBBC89922C0C99923C0CA9B82
S113010024C08CE090E008958AE090E0089582E0B5
S113011090E0089583E090E0089581E090E00895F0
S113012085E090E0089586E090E0089584E090E012
S1130130089588E090E0089589E090E0089587E0CC
S113014090E008958BE090E0089580E190E00895B8
S1130150B3DFB7DF80509F4FFC01808188BBF9CFAC
S1070160F894FFCF3D
S11301643F065B4F666D7D277F6F777C395E7971BF
S1050174000085
S9030000FC
