S00E00004B65797061642E73726563B8
S113000045C000004BC0000049C0000047C00000CC
S113001045C0000043C0000041C000003FC00000D4
S11300203DC000003BC0000039C0000037C00000E4
S113003035C0000033C0000031C000002FC00000F4
S11300402DC000002BC0000029C0000027C0000004
S113005025C0000023C0000021C000001FC0000014
S11300601DC000001BC0000019C0000017C0000024
S113007015C0000013C0000011C000000FC0000034
S11300800DC000000BC0000009C0000011241FBEF9
S1130090CFEFD0E1DEBFCDBF53D058C0B1CF88EF92
S11300A08ABB87E08BBB089588E08BBB83E397E032
S11300B00197F1F7C8992EC0C9992EC0CA992EC0CC
S11300C080E18BBB83E397E00197F1F7C89928C0DF
S11300D0C99928C0CA9928C080E28BBB83E397E002
S11300E00197F1F7C89922C0C99922C0CA9922C0C0
S11300F080E48BBB83E397E00197F1F7C8991CC0B8
S1130100C9991CC099B392FB882780F992FF17C044
S11301108CE0089581E0089582E0089583E00895D5
S113012084E0089585E0089586E0089587E00895C1
S113013088E0089589E008958AE008958BE00895A1
S11301408FEF84BBACDFB0DF85BBFDCFF894FFCF6E
S9030000FC
