:1000000045C0000060C000005EC000005CC0000091
:100010005AC0000058C0000056C0000054C0000084
:1000200052C0000050C000004EC000004CC0000094
:100030004AC0000048C0000046C0000044C00000A4
:1000400042C0000040C000003EC000003CC00000B4
:100050003AC0000038C0000036C0000034C00000C4
:1000600032C0000045C000002EC000002CC00000BF
:100070002AC0000028C0000026C0000024C00000E4
:1000800022C0000020C000001EC0000011241FBEBE
:10009000CFEFD0E1DEBFCDBF11E0A0E0B1E0EAECF0
:1000A000F1E000E00BBF02C007900D92A031B10754
:1000B000D9F721E0A0E1B1E001C01D92A331B20760
:1000C000E1F754D080C09CCF8FEF8ABB12B8EAE82A
:1000D000F0E0808185648083EDE7F0E080818062DC
:1000E0008083ECE7F0E080818062808378940895DB
:1000F0001F920F920FB60F9211245F936F937F930D
:100100008F939F93AF93BF93F894809110018111C7
:100110000FC085E080938A001092890010928800B9
:10012000109281001092800081E08093100111C034
:1001300085E480938A00809180009091810060E244
:100140007CE12DD06093120181E080931101109227
:1001500010017894BF91AF919F918F917F916F9192
:100160005F910F900FBE0F901F901895ADDF80919B
:1001700000018BBB809111018823E1F38091120172
:10018000803118F08FE080931201E0911201F0E0CD
:10019000E050FF4F80818BBB10921101EBCFAA1B67
:1001A000BB1B51E107C0AA1FBB1FA617B70710F062
:1001B000A61BB70B881F991F5A95A9F78095909594
:0A01C000BC01CD010895F894FFCFB3
:1001CA003F065B4F666D7D277F6F777C395E79715D
:00000001FF
