:1000000045C0000060C000005EC000005CC0000091
:100010005AC000007BC000008EC00000B2C00000CB
:10002000DAC0000050C000004EC000004CC000000C
:100030004AC0000048C0000046C0000044C00000A4
:1000400042C0000040C000003EC000003CC00000B4
:100050003AC0000038C0000036C0000034C00000C4
:1000600032C0000030C000002EC000002CC00000D4
:100070002AC0000028C0000026C0000024C00000E4
:1000800022C0000020C000001EC0000011241FBEBE
:10009000CFEFD0E1DEBFCDBF11E0A0E0B1E0ECE0FA
:1000A000F2E000E00BBF02C007900D92A230B10752
:1000B000D9F721E0A2E0B1E001C01D92A430B2075F
:1000C000E1F717D0A1C09CCF87B3806887BB12B877
:1000D00085B5806485BD85B5806285BD85B5826046
:1000E00085BD14BC8FEF8ABF80EF89BF88BF78942D
:1000F0000895EADF809100018823E1F380910201F5
:100100009091030183BD10920001F4CF1F920F92D2
:100110000FB60F9211248F93F8941092030110924E
:10012000020181E08093000178948F910F900FBEBF
:100130000F901F9018951F920F920FB60F921124D7
:100140008F939F93F8948091020190910301C3973C
:100150009093030180930201809102019091030129
:10016000992324F4109203011092020181E08093FC
:10017000000178949F918F910F900FBE0F901F9068
:1001800018951F920F920FB60F9211248F939F9381
:10019000F8948091020190910301C396909303011A
:1001A0008093020180910201909103018F3F91059C
:1001B00039F034F08FEF90E09093030180930201C7
:1001C00081E08093000178949F918F910F900FBEF2
:1001D0000F901F9018951F920F920FB60F92112437
:1001E0008F939F93F8948FEF90E090930301809307
:1001F000020181E08093000178949F918F910F908C
:0C0200000FBE0F901F901895F894FFCFD0
:02020C000100EF
:00000001FF
