S00F000050726F6A6563742E737265633E
S113000045C0000095C100005EC000005CC0000057
S11300105AC0000058C0000056C0000054C0000080
S113002052C0000050C000004EC000004CC0000090
S11300304AC0000048C0000046C0000044C00000A0
S113004042C0000040C000003EC000003CC00000B0
S11300503AC0000038C0000036C0000034C00000C0
S113006032C0000030C000002EC000002CC00000D0
S11300702AC0000028C0000026C0000024C00000E0
S113008022C0000020C000001EC0000011241FBEBA
S1130090CFEFD0E1DEBFCDBF11E0A0E0B1E0E6E8F4
S11300A0F7E000E00BBF02C007900D92AE39B10734
S11300B0D9F721E0AEE9B1E001C01D92A53AB2073B
S11300C0E1F706D35EC39CCFE5E6F0E09081916052
S11300D0908390819D7F90839081946090839BE72F
S11300E09A95F1F78BBB8BE78A95F1F780818B7F2B
S11300F080830895E5E6F0E090819E7F908390816F
S11301009D7F90839081946090839BE79A95F1F70B
S11301108BBB8BE78A95F1F780818B7F8083089571
S1130120D3DF83E397E00197F1F70895CF93DF934B
S1130130EC0102C0F5DF219688818111FBCFDF91AC
S1130140CF91089590E4899F600D1124862F8068D3
S1130150D1DF8FEF97E40197F1F700C00000089515
S113016081E0C8DF8FEF97E40197F1F700C000004A
S1130170089588E3BFDF86E69EE00197F1F700006B
S113018088E3B8DF86E69EE00197F1F7000088E394
S1130190B1DF86E69EE00197F1F700008CE0AADF6C
S11301A086E69EE00197F1F7000086E0A3DF86E68D
S11301B09EE00197F1F70000D3CF089582B18260E9
S11301C082B98AB188618AB9E5E9F0E08081866004
S11301D0808383E089B908955D9BFECF8CB98BB190
S11301E080628BB90895CF93DF93EC0102C0F4DFF2
S11301F0219688818111FBCFDF91CF91089504C0AE
S113020080910001811107C05F9BFACF8CB19BB133
S113021090689BB9089580E808958FEF8ABB809316
S11302206400A7DF9DDF2FEF8FE796E12150804028
S11302309040E1F700C00000089588EF80936100CA
S113024087E080936200089588E08093620083E3EE
S113025097E00197F1F7009948C0019948C00299C5
S113026048C0EFEFF7E43197F1F700C0000080E1F8
S11302708093620083E397E00197F1F700993BC014
S113028001993BC002993BC0EFEFF7E43197F1F7D6
S113029000C0000080E28093620083E397E001974E
S11302A0F1F700992EC001992EC002992EC0EFEFEC
S11302B0F7E43197F1F700C0000080E48093620016
S11302C083E397E00197F1F7009921C0019921C0D8
S11302D090B192FB882780F992FD1DC0EFEFF7E4FF
S11302E03197F1F700C00000089581E3089582E397
S11302F0089583E3089584E3089585E3089586E3E8
S1130300089587E3089588E3089589E308958AE2C8
S1130310089580E3089583E2089580EF84BB0895EF
S113032011BA81E089BF83E080936A0078940895CC
S11303301F920F920FB60F9211248F939F93F894EC
S11303409091000181E089278093000178949F9126
S11303508F910F900FBE0F901F90189560E080E072
S1130360F1DE82E291E0E2DE60E081E0EBDE81E852
S113037091E0DCCE089587B3806887BB8EB5886131
S11303808EBD8EB581608EBD1DBC1CBC08952091B0
S1130390090130910A0140E050E060E070E880E734
S11303A090E0A8D137BD26BD84E08FBD2FEF8FE349
S11303B092E0215080409040E1F700C000001FBC53
S11303C00895880F991FFC01E75FFE4F208131815A
S11303D040E050E060E070E880E790E08BD137BD0A
S11303E026BD84E08FBD2FEF8FE392E02150804043
S11303F09040E1F700C000001FBC0895CF93DF9345
S1130400C3E0D0E009C0CE01DCDF8FEF9FE80197A5
S1130410F1F700C000002196CA30D105A4F3DF91A2
S1130420CF910895CF93DF93C0E0D0E013C0CE0105
S113043081709078992324F401978E6F9F6F0196B1
S1130440019721F484E090E0BCDF03C087E090E0F2
S1130450B8DF2196C830D10554F3DF91CF910895C8
S113046080E090E017C0E0919F01F0E0EF5FFE4F65
S1130470208125BB20919F0131E0320F30939F01F1
S1130480273011F410929F01E6E6FEE03197F1F770
S113049000000196843FF1E09F072CF30895CF9369
S11304A0DF93CDB7DEB760970FB6F894DEBF0FBE0B
S11304B0CDBF9CE0E1E8F1E0DE01119601900D92E0
S11304C09A95E1F7FE013D9694E0DF011D929A951D
S11304D0E9F7FB01E056FE4F808361307105A9F016
S11304E01CF4672B41F02EC062307105C1F06330FB
S11304F07105F9F027C08DE0E3E3F1E0DE01119628
S113050001900D928A95E1F71DC08EE0E0E4F1E0E0
S1130510DE01119601900D928A95E1F713C08FE0E8
S1130520EEE4F1E0DE01119601900D928A95E1F777
S113053009C080E1EDE5F1E0DE01119601900D9234
S11305408A95E1F760E080E0FDDD82E291E0EEDD96
S113055060E081E0F7DDCE010196E8DD60960FB63C
S1130560F894DEBF0FBECDBFDF91CF91089526DE94
S113057064DE01DFD2DED4DE50CE08950F931F93E4
S1130580CF9300E010E01EC08091000181110FC0E4
S113059080E090E005C0FC01E056FE4F1082019619
S11305A084309105C4F381E080939E010FC04CDE3A
S11305B08111C82FCC2339F0EADEB8018C2F6FDF0C
S11305C00F5F1F4FC0E004301105F4F22FEF8FEBE3
S11305D096E0215080409040E1F700C00000CF91A8
S11305E01F910F910895EF92FF921F93CF93DF9382
S11305F0CDB7DEB7A0970FB6F894DEBF0FBECDBF60
S113060080E2EDE6F1E0DE01119601900D928A950B
S1130610E1F7CE010196E7DDE12CF12C21C0EFDDFD
S1130620182F80910001882381F006C0FC01E05658
S1130630FE4F1082019602C080E090E08430910564
S1130640ACF381E080939E010FC0A1DE8AE2C4DD99
S1130650112331F0B701812F22DF2FEFE21AF20AC2
S113066084E0E816F104DCF29FEF2FEB86E0915072
S113067020408040E1F700C00000A0960FB6F89437
S1130680DEBF0FBECDBFDF91CF911F91FF90EF90E2
S1130690089566DD60E080E055DD6DE171E080EA9B
S11306A091E066D0892B31F48DE891E03FDDA6DE40
S11306B0D7DE04C087E991E039DDB4DE2FEF8FEF98
S11306C091E1215080409040E1F700C0000008957E
S11306D04EDF44DE80910001882311F04FDF01C01A
S11306E082DF80919E01882319F010929E01F1CF40
S11306F0D0DFEFCF052E97FB16F400940FD057FDF3
S113070005D014D007FC02D046F408C0509540959B
S1130710309521953F4F4F4F5F4F089590958095A9
S1130720709561957F4F8F4F9F4F0895A1E21A2EC8
S1130730AA1BBB1BFD010DC0AA1FBB1FEE1FFF1F81
S1130740A217B307E407F50720F0A21BB30BE40BD1
S1130750F50B661F771F881F991F1A9469F7609518
S11307607095809590959B01AC01BD01CF010895D2
S1130770FB01DC018D91019080190110D9F3990BD3
S10907800895F894FFCF78
S1130786019080C040602030100B024B029302BAE5
S1130796020F037003DB0316049604260532333472
S11307A63500446F6F72206C6F636B2073797374BA
S11307B6656D00496E736572742050573A202A009D
S11307C6496E736572742050573A202A2A00496E7E
S11307D6736572742050573A202A2A2A00496E7388
S11307E66572742050573A202A2A2A2A000D0A4490
S11307F66F6F72206C6F636B2073797374656D0D04
S11308060A496E736572742050573A20004F50455A
S11108164E20444F4F520052657472792100F7
S9030000FC
