S00F000050726F6A6563742E737265633E
S113000045C00000AAC100005EC000005CC0000042
S11300105AC0000058C0000056C0000054C0000080
S113002052C0000050C000004EC000004CC0000090
S11300304AC0000048C0000046C0000044C00000A0
S113004042C0000040C000003EC000003CC00000B0
S11300503AC0000038C0000036C0000034C00000C0
S113006032C0000030C000002EC000002CC00000D0
S11300702AC0000028C0000026C0000024C00000E0
S113008022C0000020C000001EC0000011241FBEBA
S1130090CFEFD0E1DEBFCDBF11E0A0E0B1E0E2E4FC
S11300A0F8E000E00BBF02C007900D92AE39B10733
S11300B0D9F721E0AEE9B1E001C01D92A53AB2073B
S11300C0E1F7BFD2BCC39CCFE5E6F0E0908191603C
S11300D0908390819D7F90839081946090839BE72F
S11300E09A95F1F78BBB8BE78A95F1F780818B7F2B
S11300F080830895E5E6F0E090819E7F908390816F
S11301009D7F90839081946090839BE79A95F1F70B
S11301108BBB8BE78A95F1F780818B7F8083089571
S1130120D3DF83E397E00197F1F70895CF93DF934B
S1130130EC0102C0F5DF219688818111FBCFDF91AC
S1130140CF91089590E4899F600D1124862F8068D3
S1130150D1DF8FEF97E40197F1F700C00000089515
S113016081E0C8DF8FEF97E40197F1F700C000004A
S1130170089588E3BFDF86E69EE00197F1F700006B
S113018088E3B8DF86E69EE00197F1F7000088E394
S1130190B1DF86E69EE00197F1F700008CE0AADF6C
S11301A086E69EE00197F1F7000086E0A3DF86E68D
S11301B09EE00197F1F70000D3CF089582B18260E9
S11301C082B98AB188618AB9E5E9F0E08081866004
S11301D0808383E089B908955D9BFECF8CB98BB190
S11301E080628BB90895CF93DF93EC0102C0F4DFF2
S11301F0219688818111FBCFDF91CF91089504C0AE
S113020080910001811107C05F9BFACF8CB19BB133
S113021090689BB9089581E008958FEF8ABB80931D
S11302206400A7DF9DDF2FEF8FE796E12150804028
S11302309040E1F700C00000089588EF80936100CA
S113024087E080936200089588E08093620083E3EE
S113025097E00197F1F7009948C0019948C00299C5
S113026048C0EFEFF7E43197F1F700C0000080E1F8
S11302708093620083E397E00197F1F700993BC014
S113028001993BC002993BC0EFEFF7E43197F1F7D6
S113029000C0000080E28093620083E397E001974E
S11302A0F1F700992EC001992EC002992EC0EFEFEC
S11302B0F7E43197F1F700C0000080E48093620016
S11302C083E397E00197F1F7009921C0019921C0D8
S11302D090B192FB882780F992FD1DC0EFEFF7E4FF
S11302E03197F1F700C00000089581E3089582E397
S11302F0089583E3089584E3089585E3089586E3E8
S1130300089587E3089588E3089589E308958AE2C8
S1130310089580E3089583E2089587B3806887BBD6
S11303208FB582608FBD8EB588608EBD8EB58061BD
S11303308EBD8FB588608FBD8EB581608EBD1DBCAE
S11303401CBC089580EF84BB089511BA81E089BF75
S113035083E080936A00789408951F920F920FB6F9
S11303600F9211248F939F939091000181E089272C
S1130370809300019F918F910F900FBE0F901F905B
S113038018951CDF5ADFC9DFDDDFDFDF46CF0895B4
S1130390CF93DF93CDB7DEB760970FB6F894DEBF87
S11303A00FBECDBF1A821982FE0133968EE0DF01A3
S11303B01D928A95E9F781E1E2E2F1E0DE0111960E
S11303C001900D928A95E1F760E080E0BBDECE01FA
S11303D00196ACDE8CE0E2E9F1E0DE0111960190D9
S11303E00D928A95E1F760E081E0ACDECE010196E2
S11303F09DDE60960FB6F894DEBF0FBECDBFDF91D1
S1130400CF9108952091090130910A0140E050E014
S113041060E070E880E790E0BCD137BD26BD26B52A
S113042037B536952795ABE7B4E1CFD19695879547
S1130430E8E7F0E0918380832FEF8FE392E021508F
S113044080409040E1F700C00000118210820895BE
S11304508FEF9FEF97BD86BD26B537B536952795A7
S1130460ABE7B4E1B2D196958795E8E7F0E09183E4
S113047080832FEF8FE392E0215080409040E1F79A
S113048000C00000118210820895880F991FFC019A
S1130490E75FFE4F2081318140E050E060E070E88A
S11304A080E790E076D137BD26BD26B537B53695C1
S11304B02795ABE7B4E189D196958795E8E7F0E015
S11304C0918380832FEF8FE392E02150804090400E
S11304D0E1F700C00000118210820895CF93DF93EA
S11304E0C0E0D0E003C0CE01D0DF2196CA30D105F0
S11304F0D4F3DF91CF910895CF93DF93C0E0D0E0A0
S113050013C0CE0181709078992324F401978E6FE3
S11305109F6F0196019721F48AE090E0B6DF03C053
S113052085E090E0B2DF2196CA30D10554F3DF9123
S1130530CF91089580E090E017C0E0919F01F0E032
S1130540EF5FFE4F208125BB20919F0131E0320FE8
S113055030939F01273011F410929F01E6E6FEE0EC
S11305603197F1F700000196843FF1E09F072CF3E7
S11305700895CF93DF93CDB7DEB760970FB6F894A5
S1130580DEBF0FBECDBF9CE0E2E9F1E0DE011196D3
S113059001900D929A95E1F7FE013D9694E0DF01FA
S11305A01D929A95E9F7FB01E056FE4F8083613076
S11305B07105A9F01CF4672B41F02EC0623071055F
S11305C0C1F063307105F9F027C08DE0E3E3F1E099
S11305D0DE01119601900D928A95E1F71DC08EE01F
S11305E0E0E4F1E0DE01119601900D928A95E1F7C5
S11305F013C08FE0EEE4F1E0DE01119601900D925C
S11306008A95E1F709C080E1EDE5F1E0DE0111969C
S113061001900D928A95E1F760E080E093DD82E23B
S113062091E084DD60E081E08DDDCE0101967EDD28
S113063060960FB6F894DEBF0FBECDBFDF91CF91A9
S11306400895CF93DF93CDB7DEB7A0970FB6F89494
S1130650DEBF0FBECDBF95DEFBDE9ADE80910001CA
S1130660811121C028C08091000181110FC080E058
S113067090E005C0FC01E056FE4F108201968430E4
S11306809105C4F381E080939E0147C0DDDD8111B3
S1130690182F112359F0B6DEB701812F6ADF2FEF2F
S11306A0E21AF20A02C0E12CF12C10E084E0E81610
S11306B0F104CCF232C080E2EEE7F1E0DE01119603
S11306C001900D928A95E1F7CE0101968CDDE12C23
S11306D0F12C1FC094DD182F813081F406C0FC0179
S11306E0E056FE4F1082019602C080E090E0843014
S11306F09105ACF381E080939E010FC083DE8AE212
S11307006BDD112331F0B701812F33DF9FEFE91A3D
S1130710F90A24E0E216F104ECF280919E018823A8
S113072019F010929E0199CF8FEF9FEB26E0815034
S113073090402040E1F700C000006DE171E080EAE4
S113074091E074D0892B99F40BDD60E080E0FADC51
S11307508DE691E0EBDCC2DEEDDE8FEF9FEF21E171
S1130760815090402040E1F700C0000076CFF8DCD3
S113077060E080E0E7DC87E791E0D8DCBDDE8FEF66
S11307809FEF21E1815090402040E1F700C000003C
S113079064CF052E97FB16F400940FD057FD05D0B7
S11307A023D007FC02D046F408C0509540953095FC
S11307B021953F4F4F4F5F4F0895909580957095C9
S11307C061957F4F8F4F9F4F0895A29FB001B39FB4
S11307D0C001A39F700D811D1124911DB29F700D46
S11307E0811D1124911D0895A1E21A2EAA1BBB1B81
S11307F0FD010DC0AA1FBB1FEE1FFF1FA217B307E9
S1130800E407F50720F0A21BB30BE40BF50B661FFE
S1130810771F881F991F1A9469F7609570958095C2
S113082090959B01AC01BD01CF010895FB01DC0152
S11308308D91019080190110D9F3990B0895F894C2
S1050840FFCFE4
S1130842019080C040602030100B024B029302BA28
S1130852020F037003DB03160496042605323334B5
S11308623500446F6F72206C6F636B2073797374FD
S1130872656D00496E736572742050573A202A00E0
S1130882496E736572742050573A202A2A00496EC1
S1130892736572742050573A202A2A2A00496E73CB
S11308A26572742050573A202A2A2A2A004F50454A
S11308B24E20444F4F5200526574727921000D0A42
S11308C2446F6F72206C6F636B2073797374656D00
S11108D20D0A496E736572742050573A200067
S9030000FC
