S013000054494D45525F434F554E542E73726563A8
S113000045C0000060C000005EC000005CC000008D
S11300105AC0000082C0000056C0000054C0000056
S113002052C0000051C000004EC000004CC000008F
S11300304AC0000048C0000046C0000044C00000A0
S113004042C0000040C000003EC000003CC00000B0
S11300503AC0000038C0000036C0000034C00000C0
S113006032C0000030C000002EC000002CC00000D0
S11300702AC0000028C0000026C0000024C00000E0
S113008022C0000020C000001EC0000011241FBEBA
S1130090CFEFD0E1DEBFCDBF11E0A0E0B1E0E2E8F8
S11300A0F1E000E00BBF02C007900D92A031B10750
S11300B0D9F721E0A0E1B1E001C01D92A331B2075C
S11300C0E1F754D05CC09CCF1F920F920FB60F92F1
S11300D011248F93F89483B5885B83BD80911001BC
S11300E08F5F80931001823389F480911101811113
S11300F00BC0809112018F5F8093120180911201D5
S1130100803110F0109212011092100178948F91A6
S11301100F900FBE0F901F9018951F920F920FB65D
S11301200F9211248F939F93F8949091110181E081
S1130130891B8093110178949F918F910F900FBE2A
S11301400F901F9018958FEF8ABB12B885E085BD7C
S113015088E483BD80E887BF86B7806886BF80E176
S113016089BF93E09ABF88BF78940895ECDFE0914B
S11301701201F0E0E050FF4F80818BBBF8CFF89480
S1050180FFCFAB
S11301823F065B4F666D7D277F6F777C395E7971A1
S9030000FC
